:020000040000FA
:0600000036EF09F01200CA
:0610000036EF09F01200BA
:021008001200D4
:021018001200C4
:02102A000000C4
:04102C00D9CFE6FF33
:10103000E1CFD9FF040EE126F19E0F0EC16E956A35
:1010400093809382949294948292829481B007D0F8
:10105000010EF36E020EF3CFDBFF030EDB6A81B2EB
:1010600006D0020EF36EF3CFDBFF030EDB6AD9501E
:10107000020FE96EDACFEAFF010EEE1801E1ED5042
:1010800023E182828284800E836E640EE66EE66ABD
:1010900053D8E552E552DE6ADD6ADECF00F0DDCFDF
:1010A00001F0080E005C000E01580EE283407F0B39
:1010B000836E640EE66EE66A3FD8E552E552DF2A9B
:1010C000010E01E3DB2AE9D7D950020FE96EDACF2E
:1010D000EAFF020EEE1801E1ED5023E182928294C4
:1010E000010E836E640EE66EE66A26D8E552E5527E
:1010F000DE6ADD6ADECF00F0DDCF01F0080E005CB5
:10110000000E01580EE28350E824836E640EE66EF2
:10111000E66A12D8E552E552DF2A010E01E3DB2A26
:10112000E9D794D7040EE15C02E2E16AE552E16E90
:10113000E552E7CFD9FF1200D9CFE6FFE1CFD9FFC3
:10114000040EE126DE6ADD6ADECF00F0DDCF01F0BD
:10115000FD0EDBCF02F0FE0EDBCF03F00250005C91
:10116000035001581AE2020EDB6A030EDB6A020E1C
:10117000DBCF00F0030EDBCF01F0FB0E005C040EB2
:10118000015806E2020EDB2A030E01E3DB2AEFD749
:10119000DF2A010E01E3DB2AD7D7040EE15C02E26D
:0E11A000E16AE552E16EE552E7CFD9FF120099
:0211AE002A0E07
:1011B000F66E100EF76E000EF86E00010900F55085
:1011C000656F0900F550666F03E1656701D03DD09A
:1011D0000900F550606F0900F550616F0900F55086
:1011E000626F09000900F550E96E0900F550EA6EDA
:1011F000090009000900F550636F0900F550646F9C
:1012000009000900F6CF67F0F7CF68F0F8CF69F072
:1012100060C0F6FF61C0F7FF62C0F8FF00016353D2
:1012200002E1645307E00900F550EE6E6307F8E24F
:101230006407F9D767C0F6FF68C0F7FF69C0F8FF19
:0C12400000016507000E665BBFD71200BE
:04124C00000EF36E2F
:1012500000EE00F0080E01D81200EA6002D0EE6A3B
:0C126000FCD7F350E9601200EE6AFCD7E6
:04126C0013EE00F08D
:1012700023EE00F0F86A059CD7EC08F044EC09F086
:0812800016EC08F0FBD7120088
:02128800120052
:00000001FF
